:020000040800F2
:1000000090440020753B0008F9040008FB04000838
:10001000FF040008030500080705000800000000B1
:100020000000000000000000000000000B050008B8
:100030000D050008000000000F050008110500086C
:100040008F3B00088F3B00088F3B00088F3B000868
:100050008F3B00088F3B00088F3B00088F3B000858
:100060008F3B00088F3B00088F3B00088F3B000848
:100070008F3B00088F3B00088F3B00088F3B000838
:100080008F3B00088F3B00088F3B00088F3B000828
:100090008F3B00088F3B00088F3B00088F3B000818
:1000A0008F3B00088F3B00088F3B00088F3B000808
:1000B0008F3B00088F3B00088F3B00088F3B0008F8
:1000C0008F3B00088F3B00088F3B00088F3B0008E8
:1000D0008F3B0008ED3800080B3A00081B3B000876
:1000E0008F3B00088F3B00088F3B00088F3B0008C8
:1000F0008F3B00088F3B00088F3B00088F3B0008B8
:100100008F3B00088F3B00088F3B00088F3B0008A7
:100110008F3B00088F3B00088F3B00088F3B000897
:100120008F3B00088F3B00088F3B00088F3B000887
:1001300000F002F800F090F80AA090E8000C824469
:100140008344AAF10107DA4501D100F085F8AFF246
:10015000090EBAE80F0013F0010F18BFFB1A43F0A5
:100160000103184770A6000090A60000103A24BFB3
:1001700078C878C1FAD8520724BF30C830C144BF0C
:1001800004680C607047000000230024002500264E
:10019000103A28BF78C1FBD8520728BF30C148BFEA
:1001A0000B6070476E2905F0C182702905F06780E9
:1001B000662908F08C82652908F08982672908F091
:1001C00086826129AFF3008003681B0A28BF41F0D3
:1001D0008001692904F0D887642904F0D58775293E
:1001E00004F0D2876F2905F0C885782905F033809F
:1001F000E92905F06385E42905F06085F52905F016
:100200005D85EF2905F0C585F82905F03280036882
:10021000DB0928BF41F08001632905F0D2847329EE
:1002200005F0D784E32905F09786F32905F09C862D
:10023000002070471FB505F0FBFD040000200021E1
:1002400007F07AF9401C60600020002107F05EF999
:10025000E0601FBD10B510BD05F070FF1146FFF73F
:10026000E9FF00F029F805F09CFF03B4FFF7F2FF67
:1002700003BC03F0DDFA000010B503F06FFA4FF491
:10028000A06003F097FC02F009FE00F033FA01F0E1
:10029000E0FA02F0FFFE02F0DCFE02F06BFF03F07A
:1002A0004FFA4FF4E13003F0D5FA00F031FB4FF490
:1002B000165003F0E3FB10BDAEB0982108A805F07E
:1002C00090F90024A246FFF7D7FF502259A1012040
:1002D00002F040FDADE04FF4FA6094FBF0F100FB5A
:1002E000114008B902F0C6FA40F6B83094FBF0F1BC
:1002F00000FB114000286BD106A907A802F07DFE83
:10030000E8B99DF81C204FA108A804F0D7FE08A862
:100310004FF6FF731F2200210090084600F031FFC6
:100320009DF818204AA108A804F0C8FE08A84FF6B6
:10033000FF731F2214210090002000F022FF02F022
:1003400032FF8246504607F0E5FE07463A460B4626
:1003500042A108A804F0B2FE08A84FF6FF731F22BE
:1003600028210090002000F00CFF03F0BEF90546A4
:100370002A463DA108A804F0A1FE08A84FF6FF7385
:100380001F223C210090002000F0FBFE02F0E1FF64
:1003900081464A4637A108A804F090FE08A84FF607
:1003A000FF731F2250210090002000F0EAFE02F0AF
:1003B0005AFF0646324632A108A804F07FFE08A87C
:1003C0004FF6FF731F2264210090002000F0D9FE39
:1003D00042F2107094FBF0F100FB1140002812D1A2
:1003E000504607F097FE8DE8230204969DF81830DA
:1003F0009DF81C2025A108A804F060FE08AA32A1DF
:1004000039A004F0A0FD4FF4FA7094FBF0F100FB6A
:10041000114038B93748006808B9012000E00020D1
:100420003449086002F0CFFB012003F0D4F9601CCE
:1004300084B250E73231382E3230312E34352E32FC
:1004400000000000CEC2B6C83A2564A1E600000054
:10045000CAAAB6C83A25642500000000504D322EC5
:10046000353A252E316600004348324F3A256470F4
:1004700070620000434F3A256470706D0000000008
:100480004F333A256470706D000000007B22746564
:100490006D70223A25642C2268756D223A25642CF1
:1004A00022706D3235223A252E31662C2243483295
:1004B0004F223A25642C22434F223A25642C224FA6
:1004C00033223A25647D00004377706F3934446BE2
:1004D00046487069697A5235364879765252707357
:1004E0004B576F3D00000000363935343334393511
:1004F00036000000A0012142704700BFFEE700BFA8
:10050000FEE700BFFEE700BFFEE770477047704799
:10051000704700000CB50020019000906C48006806
:1005200040F480306A49086000BF6948006800F400
:10053000003000900198401C0190009818B9019873
:10054000B0F5A06FF1D16248006800F4003010B13E
:100550000120009001E0002000900098012843D184
:100560005C48006840F010005A490860084600687E
:1005700020F0030008600846006840F002000860B0
:1005800053484068524948600846406848600846F9
:10059000406840F4806048600846406820F47C1061
:1005A00048600846406840F4E81048600846006823
:1005B00040F08070086000BF4548006800F000709F
:1005C0000028F9D04248406820F0030040494860C4
:1005D0000846406840F00200486000BF3C48406860
:1005E00000F00C000828F9D10CBD10B5FFF792FF00
:1005F00010BD10B53648006840F00100344908606D
:100600000846406834490840314948600846006857
:10061000324908402E4908600846006820F48020CE
:1006200008600846406820F4FE0048604FF41F0050
:100630008860FFF7DAFF4FF000602949086010BDBD
:1006400010B5002100200022214B5B6803F00C0153
:1006500021B1042906D0082928D107E0214B224CDA
:10066000236027E01F4B204C236023E0184B5B687E
:1006700003F47010164B5B6803F48032022303EB23
:10068000904022B9194B4343174C23600DE0104BA7
:100690005B6803F4003323B1144B4343124C2360D3
:1006A00003E0104B4343104C236003E00D4B0E4C12
:1006B000236000BF00BF064B5B68C3F303130C4C01
:1006C000E15C094B1B68CB40074C236010BD000068
:1006D00000100240002002400000FFF8FFFFF6FE7D
:1006E00008ED00E000127A000000002000093D0043
:1006F0000400002008B501212C2003F0E5FD4FF493
:100700008070ADF8000010208DF8030003208DF8F4
:1007100002006946254803F01BFB4FF48071234813
:1007200003F0C3FB0420ADF8000010208DF8030097
:1007300003208DF8020069461D4803F009FB0421DF
:100740001B4803F0B2FB4FF48050ADF800001020BE
:100750008DF8030003208DF802006946154803F068
:10076000F7FA4FF48051134803F09FFB08BD0028AF
:1007700003DD0021104A116002E001210E4A1160E0
:100780007047002803DD00210C4A116002E00121BE
:100790000A4A11607047002803DD0021084A1160F1
:1007A00002E00121064A1160704700000008014084
:1007B00000140140000C0140A00121428881224226
:1007C000B081214270B50546002405E0601CC4B22A
:1007D000C82C01DD002070BD0221394804F02BF93E
:1007E0000028F3D02946364804F0D2F8002405E06A
:1007F000601CC4B2C82C01DD0020ECE701213048A8
:1008000004F019F90028F3D02D4804F0C3F8C0B261
:10081000E1E700B587B00121042003F055FD012177
:10082000080303F051FDE020ADF8180018208DF802
:100830001B0003208DF81A0006A9224803F088FA4D
:10084000E021204803F031FB0020ADF804004FF414
:100850008270ADF806000020ADF808000220ADF867
:100860000A000120ADF80C004002ADF80E0038205F
:10087000ADF810000020ADF812000720ADF814000C
:1008800001A90F4803F0AEFF01210D4804F04FF815
:10089000FF20FFF797FF07B000BD10B504460848DA
:1008A00000884FF6C771084005490880084600884F
:1008B000204308800121024804F039F810BD0000EF
:1008C000003001400008014010B500240020D1494B
:1008D00008609020FFF776FF0020FFF773FF0020ED
:1008E000FFF770FF0020FFF76DFFFF20FFF76AFFA3
:1008F00044EA0024FF20FFF765FF04430120C649B6
:10090000C1F890012146C5A004F0CCFB204610BDE3
:1009100008B50121102003F0D7FC1020ADF800002D
:100920008DF8030003208DF802006946BF4803F0EC
:100930000FFA1021BD4803F0B8FA0120B54908604C
:10094000FFF767FF0020FFF7A8FFFFF7BDFFB849DB
:10095000088008BD10B500240020AE4908600520BD
:10096000FFF730FFFF20FFF72DFF04460120AA49C3
:10097000C1F89001204610BD10B504460020A549DD
:1009800008600120FFF71EFF2046FFF71BFF012034
:10099000A149C1F8900110BD10B500209D49086023
:1009A0000620FFF70FFF01209B49C1F8900110BD01
:1009B00010B50020974908600420FFF703FF0120CD
:1009C0009549C1F8900110BD2DE9F04106460C464D
:1009D000174600208F4908600320FFF7F3FEC4F399
:1009E0000740FFF7EFFEC4F30720FFF7EBFEE0B28E
:1009F000FFF7E8FE002505E0FF20FFF7E3FE705556
:100A0000681C85B2BD42F7DB012082490860BDE861
:100A1000F08110B500BFFFF79DFF00F00100002836
:100A2000F9D110BD2DE9F04106460C461746FFF7F7
:100A3000B3FF0020774908600220FFF7C3FEC4F32C
:100A40000740FFF7BFFEC4F30720FFF7BBFEE0B28D
:100A5000FFF7B8FE002504E0705DFFF7B3FE681CE9
:100A600085B2BD42F8DB01206A490860FFF7D1FF7B
:100A7000BDE8F0812DE9F04107460E461446F0B27C
:100A8000C0F58075AC4200DC254612E02A463146AE
:100A90003846FFF7C7FFAC4200D10BE02F442E448D
:100AA000601B84B2B4F5807F02DD4FF4807500E0F6
:100AB0002546EBE700BFBDE8F08110B504462146AE
:100AC0005CA004F0EFFA2403FFF766FFFFF7A1FF35
:100AD0000020504908602020FFF774FEC4F307404F
:100AE000FFF770FEC4F30720FFF76CFEE0B2FFF7DC
:100AF00069FE01204849C1F89001FFF78AFF10BD47
:100B00002DE9F05F81460F461646DFF830B14FEA17
:100B10001738C7F30B0ACAF58054A64200DC3446E6
:100B200044E04FEA08314FF480525846FFF74CFF3B
:100B3000002508E00AEB05001BF80000FF2800D0A4
:100B400003E0681C85B2A542F4DB00BFA54216DABB
:100B50004046FFF7B2FF002507E019F8050005EB56
:100B60000A010BF80100681C85B2A542F5DB4FEACB
:100B700008314FF480525846FFF77CFF04E02246CC
:100B800039464846FFF776FFA64200D10FE008F14C
:100B900001084FF0000AA1442744301B86B2B6F585
:100BA000805F02DD4FF4805400E03446B9E700BFB7
:100BB000BDE8F09F10B5FFF7EFFEFFF72AFF00201A
:100BC00014490860C720FFF7FDFD01201249C1F854
:100BD0009001FFF71EFF10BD10B500200D49086001
:100BE000B920FFF7EFFD01200B49C1F89001032068
:100BF00002F0CDFD10BD10B5002006490860AB2005
:100C0000FFF7E0FD01200449C1F89001032002F044
:100C1000BEFD10BD900122420000224249443D30F9
:100C200078253034782E0D0A0000000000100140B5
:100C30001400002066653A25780D0A004000002067
:100C400030B5014601F01F04C1F34513CA0AE5029D
:100C500005EB43151544A8B230BD2DE9F047064613
:100C60000F4690469A46002445464FEA4800C0F198
:100C700003094AE07A1991B2321990B2524600F053
:100C80000CFF7A1991B2321B90B2524600F005FF68
:100C90007A1B91B2321990B2524600F0FEFE7A1BD6
:100CA00091B2321B90B2524600F0F7FE3A1991B25F
:100CB000721990B2524600F0F0FE3A1991B2721BCE
:100CC00090B2524600F0E9FE3A1B91B2721990B20E
:100CD000524600F0E2FE3A1B91B2721B90B25246AD
:100CE00000F0DBFEB9F1000F05DA042000FB0490F0
:100CF00000F1060907E0601B042101FB009000F1F0
:100D00000A09681E85B2601C84B2AC42B2DBAC42F8
:100D100037D17A1991B2321990B2524600F0BDFE25
:100D20007A1991B2321990B2524600F0B6FE7A1B8F
:100D300091B2321990B2524600F0AFFE7A1B91B2D6
:100D4000321B90B2524600F0A8FE3A1991B27219C5
:100D500090B2524600F0A1FE3A1991B2721B90B2C5
:100D6000524600F09AFE3A1B91B2721990B2524666
:100D700000F093FE3A1B91B2721B90B2524600F003
:100D80008CFEBDE8F0872DE9FF4F83B08046894691
:100D90004946404600F077FE0598A0EB0805069806
:100DA000A0EB0906002D02DB0120029003E04FF0CA
:100DB000FF3002906D42002E02DB0120019003E023
:100DC0004FF0FF30019076424FEA450A4FEA460B5A
:100DD000B54219DDABEB0504002712E04946404659
:100DE000109A00F05AFE002C05DBA4EB0A040198CF
:100DF00048441FFA80F95C44029840441FFA80F886
:100E00007F1CAF42EADD18E0AAEB0604002712E0DF
:100E100049464046109A00F040FE002C05DBA4EB4A
:100E20000B04029840441FFA80F854440198484447
:100E30001FFA80F97F1CB742EADD07B0BDE8F08FEA
:100E40002DE9F84305460C4616461F46DDF820807E
:100E50004EF67D700090A81982B22346214628469E
:100E6000FFF791FF42F6651004F1010CBC441FFA34
:100E70008CF305EB060CACF1010C1FFA8CF204F1BB
:100E8000010C1FFA8CF105EB060CACF1010C009083
:100E90001FFA8CF0FFF777FF42F665100090E0191B
:100EA00083B2A81982B2E01981B22846FFF76BFF1E
:100EB0004EF67D700090E01983B22A4621462846FE
:100EC000FFF761FF04F1010CBC44ACF1020C1FFA06
:100ED0008CF305F1010CB444ACF1020C1FFA8CF256
:100EE00004F1010C1FFA8CF105F1010C1FFA8CF0D2
:100EF000CDF80080FFF747FFBDE8F8832DE9F84300
:100F000005460C4616461F46DDF82080B8F1000F56
:100F100039D14EF67D700090A81982B22346214641
:100F20002846FFF730FF42F6651004F1010CBC447F
:100F30001FFA8CF305EB060CACF1010C1FFA8CF2D6
:100F400004F1010C1FFA8CF105EB060CACF1010C5D
:100F500000901FFA8CF0FFF716FF42F66510009024
:100F6000E01983B2A81982B2E01981B22846FFF7CE
:100F70000AFF4EF67D700090E01983B22A462146A2
:100F80002846FFF700FFB8F1010F39D142F665108E
:100F90000090A81982B2234621462846FFF7F3FEA7
:100FA0004EF67D7004F1010CBC441FFA8CF305EB86
:100FB000060CACF1010C1FFA8CF204F1010C1FFAC3
:100FC0008CF105EB060CACF1010C00901FFA8CF0D3
:100FD000FFF7D9FE4EF67D700090E01983B2A81994
:100FE00082B2E01981B22846FFF7CDFE42F66510C5
:100FF0000090E01983B22A4621462846FFF7C3FE37
:10100000B8F1020F39D14FF6FF700090A81982B2E3
:10101000234621462846FFF7B6FE4FF6FF7004F13F
:10102000010CBC441FFA8CF305EB060CACF1010C6F
:101030001FFA8CF204F1010C1FFA8CF105EB060C7F
:10104000ACF1010C00901FFA8CF0FFF79CFE4FF6FC
:10105000FF700090E01983B2A81982B2E01981B242
:101060002846FFF790FE4FF6FF700090E01983B21C
:101070002A4621462846FFF786FEBDE8F883F8B5E4
:1010800004460D4616461F4644F208202B463246BB
:10109000294600902046FFF776FE48F210406A1C71
:1010A00093B291B2621C009090B23246FFF76BFE91
:1010B00044F208203B462246294600902046FFF78E
:1010C00062FE48F21040631C9AB26B1C99B2631C1A
:1010D000009098B23B46FFF756FE4FF6FF703B4636
:1010E0003246394600902046FFF74DFE4FF6FF701E
:1010F0003B463246294600903046FFF744FEF8BD95
:10110000F8B506460F4614461D464FF6FF703B469F
:101110002246394600903046FFF735FE4FF6FF7005
:101120002B463246394600903046FFF72CFE48F2F7
:1011300010406A1E93B291B2721C009090B2224687
:10114000FFF721FE44F208202B4622462946009054
:101150003046FFF718FE48F21040631E9AB27B1C1F
:1011600099B2631E009098B22B46FFF70CFE44F232
:1011700008202B462246394600902046FFF703FE02
:10118000F8BD2DE9F84F0746884693469A46DDF8A4
:1011900028900097B3E099F8000080283DDA99F88C
:1011A00000600D2E05D1009F08F110001FFA80F895
:1011B00030E0202E03DDA6F1200086B200E00026FC
:1011C000002422E000251CE004EB0610F849085C2E
:1011D00080212941084040B108EB040291B27A19FC
:1011E00090B25A4600F059FC09E0D34507D008EB0D
:1011F000040291B27A1990B2524600F04EFC681C7B
:10120000C5B2082DE0DB601CC4B2102CDADB07F19C
:10121000080087B209F1010971E0002668E006EBD9
:101220000610E44911F8100099F8001088425DD1C9
:1012300006EB0610DF4901EB4000407899F80110F9
:10124000884253D100244FE0002520E006EB061031
:10125000D84901EB4000801C10F814108020284170
:10126000014041B108EB040291B27A1990B25A469A
:1012700000F013FC09E0D34507D008EB040291B25B
:101280007A1990B2524600F008FC681CC5B2082DCD
:10129000DCDB002524E006EB0610C64901EB40002C
:1012A000801C012101EB4401405C80212941084060
:1012B00048B108EB040291B27A19083290B25A464A
:1012C00000F0EBFB0AE0D34508D008EB040291B232
:1012D0007A19083290B2524600F0DFFB681CC5B2A2
:1012E000082DD8DB601CC4B2102CADDB701C86B29C
:1012F000452E94DB09F1020907F1100087B299F835
:10130000000000287FF447AFBDE8F88F2DE9F05FBB
:101310000646884693469A46DDF82890E2E099F81A
:101320000000802835DA99F80070202F03DDA7F13E
:10133000200087B200E00027002522E000241CE006
:1013400005EB07109A49095C80202041014041B11A
:1013500008EB050291B2321990B25A4600F09DFB9B
:1013600009E0D34507D008EB050291B2321990B2DB
:10137000524600F092FB601CC4B2082CE0DB681CF3
:10138000C5B2102DDADB09F1010906F1080086B2B9
:10139000A8E000279EE007EB870000EB4710864996
:1013A00011F8100099F8001088427CD107EB8700F3
:1013B00000EB4710804901EB4000407899F801109C
:1013C0008842F2D1002580E0002423E007EB87006B
:1013D00000EB4710784901EB4000801C05EB45010C
:1013E000405C80212141084040B108EB050291B2E8
:1013F000321990B25A4600F050FB09E0D34507D0AD
:1014000008EB050291B2321990B2524600F045FB4A
:10141000601CC4B2082CD9DB002426E007EB87004F
:1014200000EB4710644901EB4000801C05EB4501CF
:10143000491C405C80212141084048B108EB05026D
:1014400091B23219083290B25A4600F026FB0AE0F7
:10145000D34508D008EB050291B23219083290B298
:10146000524600F01AFB601CC4B2082CD6DB0024E4
:1014700027E007EB870000EB47104F4901EB4000E6
:10148000801C05EB4501891C405C802121410840FE
:1014900050B108EB050291B23219103290B25A469F
:1014A00000F0FBFA0BE013E0D34508D008EB05028F
:1014B00091B23219103290B2524600F0EEFA601C2E
:1014C000C4B2082CD5DB681CC5B2182DFFF67CAF62
:1014D000781C87B2142FFFF65EAF09F1020906F1FE
:1014E000180086B299F8000000287FF418AFBDE814
:1014F000F09F2DE9F05F0746884692469946002501
:1015000031E000242BE02D490A9801EBC01000EBDC
:10151000850010F804B000261DE08020304100EA6C
:101520000B0050B108EB050291B207EBC402324444
:1015300090B2524600F0B1FA0BE0CA4509D008EB70
:10154000050291B207EBC402324490B24A4600F061
:10155000A4FA701CC6B2082EDFDB601CC4B2042CD7
:10156000D1DB681CC5B2202DCBDBBDE8F09F2DE997
:10157000FF4F81B005460F469946DDF838A04FF081
:10158000000B0020009000248046002638E01AF866
:1015900008002038C0B20090002429E0009800EB39
:1015A0004000074901EB400010F804B000261BE0A2
:1015B000EA8900085C970008A8A00008DB8F0008F3
:1015C000C28700080BF0010028B1B9192819039A45
:1015D00000F063FA04E0B91928194A4600F05DFAF0
:1015E0004FEA6B0B701CC6B2082EEBDB601CC4B25A
:1015F000062CD3DBA81DC5B208F1010000F0FF08DE
:101600001AF808000028C2D105B0BDE8F08F2DE916
:10161000F84304460D4616461F46DDF820804FF677
:10162000FF7000F0F3F83B46324629462046CDF8DD
:101630000080FFF7A6FD00F0BDF8BDE8F8832DE9B6
:10164000F84304460D4616461F46DDF820803B460B
:10165000324629462046CDF80080FFF792FD00F083
:10166000A9F8BDE8F8832DE9F84304460D4616466F
:101670001F46DDF820804FF6FF7000F0C7F83B46AC
:10168000324629462046CDF80080FFF770FF00F073
:1016900091F8BDE8F8832DE9F84304460D46164657
:1016A0001F46DDF820803B46324629462046CDF8CD
:1016B0000080FFF75CFF00F07DF8BDE8F8830000D4
:1016C00008B50121182002F0FFFD4FF47040ADF87D
:1016D000000003208DF8020010208DF803006946F9
:1016E000F94802F035FBC020ADF8000003208DF86A
:1016F000020010208DF803006946F44802F028FB30
:1017000008BD0021082118E000F080022AB14FF442
:101710000042ED4B10331A6004E04FF40042EA4BF4
:1017200014331A604FF40052E74B14331A601B1F36
:101730001A604206100E4A1ED1B20029E4DC70473E
:1017400010B504464020E14948612046FFF7D9FF23
:1017500010BD10B504464020DC4908612046FFF763
:10176000D0FF10BD10B504464020D84908612012B2
:10177000FFF7C7FFE0B2FFF7C4FF10BD30B5054665
:101780000C462846FFF7DCFF2046FFF7E2FF30BD9E
:1017900010B54FF48040CC4914310860642002F049
:1017A0001AF84FF48040C84910310860322002F026
:1017B00012F810BD7047F0B504460D4616461F4698
:1017C0002A20FFF7BDFF0020FFF7C3FFA11CC8B20E
:1017D000FFF7BFFF0020FFF7BCFFB11CC8B2FFF747
:1017E000B8FF2B20FFF7ACFF0020FFF7B2FFE91C8A
:1017F000C8B2FFF7AEFF0020FFF7ABFFF91CC8B27D
:10180000FFF7A7FF2C20FFF79BFFF0BD70B5064642
:101810007F231A4600210846FFF7CDFF2C20FFF753
:101820008FFF002408E0002503E03046FFF79AFF11
:101830006D1C802DF9D3641C802CF4D370BD00285E
:1018400003DD8021A14A116102E080219F4A51619C
:10185000704710B5FFF734FFFFF79AFF0120FFF73D
:10186000EEFF1120FFF76CFF782001F0B4FFB120EC
:10187000FFF766FF0120FFF76CFF2C20FFF769FFE1
:101880002D20FFF766FFB220FFF75AFF0120FFF778
:1018900060FF2C20FFF75DFF2D20FFF75AFFB320DC
:1018A000FFF74EFF0120FFF754FF2C20FFF751FFF9
:1018B0002D20FFF74EFF0120FFF74BFF2C20FFF7F5
:1018C00048FF2D20FFF745FFB420FFF739FF072021
:1018D000FFF73FFFC020FFF733FFA220FFF739FFDC
:1018E0000220FFF736FF8420FFF733FFC120FFF708
:1018F00027FFC520FFF72DFFC220FFF721FF0A2099
:10190000FFF727FF0020FFF724FFC320FFF718FF92
:101910008A20FFF71EFF2A20FFF71BFFC420FFF7D6
:101920000FFF8A20FFF715FFEE20FFF712FFC520FB
:10193000FFF706FF0E20FFF70CFF3620FFF700FF32
:10194000C820FFF706FFE020FFF7FAFE0F20FFF7A1
:1019500000FF1A20FFF7FDFE0F20FFF7FAFE182008
:10196000FFF7F7FE2F20FFF7F4FE2820FFF7F1FE28
:101970002020FFF7EEFE2220FFF7EBFE1F20FFF7EF
:10198000E8FE1B20FFF7E5FE2320FFF7E2FE3720ED
:10199000FFF7DFFE0020FFF7DCFE0720FFF7D9FE90
:1019A0000220FFF7D6FE1020FFF7D3FEE120FFF75D
:1019B000C7FE0F20FFF7CDFE1B20FFF7CAFE0F204A
:1019C000FFF7C7FE1720FFF7C4FE3320FFF7C1FE65
:1019D0002C20FFF7BEFE2920FFF7BBFE2E20FFF7CD
:1019E000B8FE3020FFF7B5FE3020FFF7B2FE3920F9
:1019F000FFF7AFFE3F20FFF7ACFE0020FFF7A9FE88
:101A00000720FFF7A6FE0320FFF7A3FE1020FFF735
:101A1000A0FE2A20FFF794FE0020FFF79AFE002088
:101A2000FFF797FE0020FFF794FE7F20FFF791FE5F
:101A30002B20FFF785FE0020FFF78BFE0020FFF72D
:101A400088FE0020FFF785FE9F20FFF782FEF02032
:101A5000FFF776FE0120FFF77CFEF620FFF770FE11
:101A60000020FFF776FE3A20FFF76AFE0520FFF719
:101A700070FE2920FFF764FE4FF6FF70FFF7C6FEE9
:101A8000FFF798FE10BD30B504460D462B462246A2
:101A900029462046FFF78FFE30BD70B504460D463F
:101AA0001646802C00DB70BD802D00DBFBE7681C38
:101AB00083B2601C82B229462046FFF77CFE304686
:101AC000FFF750FE00BFEEE7000C014000100140A0
:101AD00060B505460E4631462846FFF7D4FFE0B212
:101AE000FFF737FE204660BD2DE9F04704460D465E
:101AF00016461F46DDF820A03B46324629462046C2
:101B0000FFF759FE2C20FFF71BFEA0460AE0A9466E
:101B100004E05046FFF726FE09F10109B945F8D364
:101B200008F10108B045F2D3BDE8F0870FB410B555
:101B3000ADF5027D00244FF4007102A803F051FDC1
:101B400085A8019002A8019A849903F099FA0020CF
:101B5000019002A803F081FC0446214602A801F08E
:101B6000DFFE0DF5027D10BC5DF814FB10B50446D8
:101B7000204601F030FE10BD10B500BF0021FE4828
:101B8000A0F83A1790F83807401CC1B2FA4880F81C
:101B9000381790F83807142803DB0021F64880F83E
:101BA0003817F54890F8384704EB4401C1EBC412EC
:101BB000A0F5005101EB82004FF4FA7103F0EFFC45
:101BC0000021EE4820F8141010BD70B50446EA4814
:101BD00090F83857E94830F81560B6F5FA7F02DB1F
:101BE000FFF7CAFF25E005EB4500C0EBC511E4484F
:101BF00000EB81008455E048B0F83A07401C81B200
:101C0000DD48A0F83A17DD4830F81500401C81B2D5
:101C1000DA4820F8151026B93E2C02D1FFF7ACFFA8
:101C200007E0D84800780D2803D10A2C01D1FFF72E
:101C3000A3FFD448047070BD70B506464FF4FA7126
:101C4000304603F0ACFCCC4890F8391790F83807D0
:101C5000814235D1C84890F83907CB490978884284
:101C600015D1C648C849097830F8110000280EDDA2
:101C7000C248C549097830F81100C449098888422A
:101C800005D1C3480078401CC14908700DE0BA482E
:101C900090F83907BC490870B848097830F8110045
:101CA000BA4908800020BA490870B948007803286A
:101CB00004DDFFF761FFB7A0FFF738FF002070BD1C
:101CC00000BFAD4890F83947AC4830F8145004EBE9
:101CD0004400C0EBC412AA4800EB82012A463046F9
:101CE00003F0E6FB04EB4400C0EBC412A44800EB95
:101CF0008203A14890F839172A46ADA0FFF716FFD6
:101D000004EB4401C1EBC4129D4901EB82004FF486
:101D1000FA7103F044FC0021984820F8141096480A
:101D200090F83907401CC1B2934880F8391790F8F1
:101D30003907142803DB00218F4880F83917002069
:101D40009149087091490880914908702846B6E782
:101D500030B59B4B1A7C98549B1D23F812109B1F87
:101D60001B7C5B1C964C237423461B7C052B01DBE0
:101D70000023237430BD70B505460E460DB9002012
:101D800070BD0EB90020FBE78D48407C8C49097C72
:101D9000884201D10020F3E78948447C801D30F857
:101DA0001430801F025D214686A0FFF7BFFE8448E5
:101DB000005D28708248801D30F8140030800020BB
:101DC0007F49085500217E48801D20F81410801F8F
:101DD000407C401C7A4948740846407C052801DB59
:101DE0000020487400BF0120CAE738B5044601212D
:101DF000082002F069FA0120ADF8000010208DF8EB
:101E0000030003208DF802006946744801F0A0FF2A
:101E10000121724802F04BF8002C07DD4FF4FA70F4
:101E2000FFF7A4FE01216D4802F03FF86CA0FFF718
:101E30007DFE38BD0FB410B5ADF5027D00244FF422
:101E4000007102A803F0CDFB85A8019002A8019AB9
:101E5000849903F015F90020019002A803F0FDFA1F
:101E60000446214602A801F075FE0DF5027D10BC66
:101E70005DF814FB70B50446002504B970BD20461A
:101E800003F0EBFA85B22946204601F063FE2146B5
:101E900056A0FFF74BFE00BFF0E700B58DB0342130
:101EA000684603F09EFB54A003F0FCF8324810385B
:101EB00090F9E02755A1684603F000F90121684632
:101EC00000F0AFFAFF212C48103880F8E01700200E
:101ED0002B49103988730DB000BD2DE9F04186B053
:101EE0000546884600241DB9002006B0BDE8F081F3
:101EF0004AA1284603F09FFA0446C4B100260027F1
:101F0000142101A803F06DFB083400E0641C14B137
:101F100020782028FAD0204603F080FAC6B2314655
:101F200041A003F0BFF8FFF7B8FF0120DDE7002074
:101F3000DBE72DE9F04186B00546884600241DB94F
:101F4000002006B0BDE8F0813AA1284603F073FAFC
:101F50000446002C76D000260027142101A803F0A7
:101F600040FB0834204603F059FAC6B234A120469B
:101F700003F061FA044666E0443200205439002040
:101F80004412002016000020170000201800002036
:101F90001A0000202A2A2A2A2A2A2A6368616E67E0
:101FA000654C696E652A2A2A2A2A2A2A0D0A000007
:101FB0005B25645D2C5B25645D2C257300000000AF
:101FC000223C002047657452582C205B25645D2C10
:101FD00025642C25642E0D0A00000000000C014031
:101FE0000D0A706F7765720D0A00000041543E3E85
:101FF0003E3A25730D0A00004E425F436C6F7365D5
:10200000536F636B65742E0D0A00000041542B4E14
:10201000534F434C3D25640D0A0000002B4E534F97
:10202000434C493A00000000747970653D25642EE8
:102030000D0A00002B4E534F4E4D493A0000000050
:102040002C00000012E00CB900207AE7641C204646
:1020500003F0E4F987B23A463146F7A003F022F8DC
:1020600039463046FFF774FE01206AE7002068E732
:102070002DE9F04105460F46002415B90020BDE8C2
:10208000F081F4A1284603F0D6F9044684B1002675
:10209000E41D00E0641C14B120782028FAD020460A
:1020A00003F0BCF9C1B2ED4880F8CA170120E6E799
:1020B0000020E4E72DE9F04106460F46002416B95A
:1020C0000020BDE8F081E6A1304603F0B4F90446F3
:1020D000002C2AD00025093400E0641C14B12078BB
:1020E0002028FAD0AFF2A801204603F0A4F9044654
:1020F0000CB90020E5E7641C1421DC4803F04FFA1A
:1021000005E02078D9494855641C681CC5B2142DD7
:1021100009DA44B12078302802DB20783928F0DD54
:1021200020782E28EDD00120CBE70020C9E72DE94B
:10213000F04105460F46002415B90020BDE8F081A6
:10214000CBA1284603F077F9044684B10026E41DAC
:1021500000E0641C14B120782028FAD0204603F057
:102160005DF9C1B2BD4880F8C9170120E6E700203B
:10217000E4E72DE9F04105460F46002415B900209B
:10218000BDE8F081BCA1284603F055F9044684B1AE
:102190000026E41D00E0641C14B120782028FAD049
:1021A000204603F03BF9C1B2AC4880F8C8170120C3
:1021B000E6E70020E4E72DE9F04105460F4600245C
:1021C00015B90020BDE8F081ADA1284603F033F930
:1021D0000446D4B10026E41D00E0641C14B120784C
:1021E0002028FAD0AFF2A811204603F024F90446C3
:1021F0000CB90020E6E7641C204603F00FF9C1B2D9
:10220000964880F8C7170120DCE70020DAE770B5B0
:1022100002460C4611460AB9002070BD08783028E5
:1022200016DB0878392813DC002306E008788F4D88
:10223000223DE854491C581CC3B2142B06DA29B1BC
:102240000878302802DB08783928EFDD0120E4E740
:102250000020E2E770B505460E4600240DB90020C7
:1022600070BD89A1284603F0E6F80446D4B10021E8
:10227000A41D00E0641C14B120782028FAD006E0E8
:1022800020787A4A403A5054641C481CC1B2142940
:1022900006DA2CB12078302802DB20783928EFDDEF
:1022A0000120DDE70020DBE72DE9F04105460F4680
:1022B000002415B90020BDE8F08175A1284603F07F
:1022C000BAF8044684B10026641D00E0641C14B111
:1022D00020782028FAD0204603F0A0F8C1B25F4849
:1022E00080F86C170120E6E70020E4E72DE9F041D3
:1022F00006460F46002416B90020BDE8F08166A10D
:10230000304603F098F80446002C32D0A41DAFF2FA
:10231000D021204603F08FF804460CB90020ECE7EA
:10232000641CAFF2E421204603F085F804460CB9A2
:102330000020E2E7641CD4B1002500E0641C14B165
:1023400020782228FAD1641C1E2148487D3803F0E9
:1023500026F905E0207845497D394855641C6D1CF7
:10236000142D03DA14B120782228F3D100BF012004
:10237000C3E70020C1E770B504460D4600260CB93E
:10238000002070BD29462046FFF7B0FF08B10120AC
:10239000F7E729462046FFF787FF08B10120F0E75D
:1023A00029462046FFF756FF08B10120E9E72946F4
:1023B0002046FFF72CFF08B10120E2E7294620461E
:1023C000FFF7F9FE08B10120DBE729462046FFF7B9
:1023D000D0FE08B10120D4E729462046FFF7A7FE2A
:1023E00008B10120CDE729462046FFF763FE08B17A
:1023F0000120C6E729462046FFF73AFE08B1012032
:10240000BFE729462046FFF794FD08B10120B8E751
:1024100029462046FFF761FD08B10120B1E7002001
:10242000AFE72DE9F04105460E460027B84615B93D
:102430000020BDE8F08133E0736F636B65743A256B
:10244000642C20646174614C656E3D25642E0D0A18
:10245000000000002B43474154543A00343200201E
:102460002B434750414444523A000000FF390020BA
:102470002B4E42414E443A002B4353434F4E3A00B9
:102480002B43455245473A002B4347534E3A0000F1
:102490002B4353513A0000002B434F50533A000056
:1024A0002846FFF7E7FC16B90020BDE8F0810027B9
:1024B000B8462AE03220FFF759FBF948FFF7BCFB8A
:1024C0000446B4B1F7A1F64802F0B5FF08B1012700
:1024D0000FE0F5A1F24802F0AEFF20B9F4A1F048F8
:1024E00002F0A9FF08B1032703E02146EC48FFF7FB
:1024F00042FF08F1010000F0FF08002F00DD05E0B9
:10250000B8F1C80F01DD022700E0D3E700BF29467C
:10251000E9A0FFF70BFB3846C7E770B502460C464B
:1025200011460AB9002070BD91B1002305E008787A
:10253000E44DE854491C581CC3B2142B06DA29B1E7
:1025400008780D2802D008780A28F0D10120EAE79F
:102550000020E8E710B50A240DE00121DAA0FFF71A
:1025600060FFD8481F3802F078FF00B108E040F65D
:10257000B830FFF7FBFA201EA4F10101CCB2ECDC6D
:1025800000BF10BD10B588B02021684603F029F8BF
:102590000824CC483C3002F060FF30B1CDA1C948DE
:1025A0003C3002F048FF00B105240121CBA0FFF729
:1025B00038FFCD4890F8C907A0420DD02246CBA1E4
:1025C000684602F07BFD01216846FFF72AFF0128DB
:1025D00002D1C54880F8C94708B010BD10B5012127
:1025E000C6A0FFF71EFF10BD70B5002414260025FD
:1025F00000BF0021C4A0FFF714FF2DE03220FFF739
:10260000B5FAA748FFF718FB0446002C1EDDA5A16C
:10261000A34802F010FF00B11FE0A3A1A04802F000
:102620000AFF20B9A2A19E4802F005FF00B114E004
:10263000022C05D1A6A19A4802F0FDFE00B10BE0E4
:10264000112C03D121469648FFF767FF681CC5B2DD
:10265000642D00DD01E000BFD0E700BF994802F023
:10266000FCFE00B108E04FF47A70FFF77FFA301EED
:10267000A6F10101CEB2BCDC00BF70BD10B51424C0
:102680000DE00121A3A0FFF7CCFE8E481E3002F022
:10269000E4FE00B108E04FF47A70FFF767FA201EFD
:1026A000A4F10101CCB2ECDC00BF10BD10B51424C4
:1026B0000DE001219AA0FFF7B4FE82483C3002F001
:1026C000CCFE00B108E04FF47A70FFF74FFA201EFD
:1026D000A4F10101CCB2ECDC00BF10BD10B50121AA
:1026E00092A0FFF79EFE10BD10B5012192A0FFF74A
:1026F00098FE7D4890F8CA07012805D1012191A0D4
:10270000FFF78FFE012010BD14216E485E3002F0ED
:1027100046FF0020F7E710B50A24FFF7E5FF012880
:1027200000D110BD01218BA0FFF77BFE012192A0FB
:10273000FFF777FE09E0FFF7D7FF08B90120F0E7C0
:102740004FF4FA70FFF712FA641E002CF3DC00203D
:10275000E7E770B504460025002604B970BD0021E6
:102760002046FFF75EFE2FE03220FFF7FFF94C48CE
:10277000FFF762FA0546002D21DD4AA1484802F024
:102780005AFE00B121E048A1454802F054FE20B9AC
:1027900047A1434802F04FFE00B116E0032D0ED1D1
:1027A0003F48007830280ADB3D480078392806DCAD
:1027B0003B480078303841B24B4880F8E017701C35
:1027C000C6B2642E00DD00E0CEE700BF464890F9B7
:1027D000E0176DA0FFF7AAF900BFBFE770B58EB094
:1027E00004460D461646342101A802F0FAFE012CDB
:1027F00021D13D4890F9E007401C10B967A0FFF7D0
:10280000A8FF394890F9E00700282BDB36480096EE
:1028100090F9E0272B4668A101A802F04FFC0121A6
:1028200001A8FFF7FEFD012802D16849887319E06D
:10283000FFF733FB16E0022C12D1FF212A4880F863
:10284000E01700206149887361A0FFF782FF2648E6
:1028500090F9E007002805DB01205C49887301E05E
:102860000EB070BD00BFFBE710B500215FA0FFF701
:10287000D8FD10BD10B5FFF731FFFFF7AFFEFFF732
:102880004AFF10BD10B586B0044614225AA101A813
:1028900002F053FE0F2C02DD002006B010BDB5E0A3
:1028A000401000204F4B00004552524F5200000094
:1028B0004641494C00000000454E442041543A2511
:1028C00073000000A139002041542B434F50533F67
:1028D0000D0A0000343630313100000041542B4ED7
:1028E00042414E443F0D0A003432002041542B4EE9
:1028F00042414E443D25640D0A00000041542B43E3
:1029000053510D0A0000000041542B4347534E0D14
:102910000A00000041542B4347534E3D310D0A003D
:1029200041542B43494D490D0A00000041542B43AB
:10293000455245473F0D0A0041542B4347415454EB
:102940003F0D0A0041542B434750414444520D0A65
:102950000000000041542B434744434F4E543D3147
:102960002C224950222C224855415745492E434F8D
:102970004D220D0A0000000041542B43474154549E
:102980003D310D0A000000006E622E6E65742E73DC
:102990006F636B65743D25642E0D0A0041542B4E08
:1029A000534F43523D53545245414D2C362C3130F8
:1029B0003030302C310D0A0041542B4E534F434FD1
:1029C0003D25642C25732C25640D0A00341200204B
:1029D00041542B4E534F43523D444752414D2C31AD
:1029E000372C31303030302C310D0A0041542B4E11
:1029F00052420D0A00000000303132333435363790
:102A000038394142434445460000000001A8005DBA
:102A100006B010BD2DE9F0470646884615461F460C
:102A20004FF000090024A24616B90020BDE8F08747
:102A30000DB90020FAE7002414E016F804904FEADC
:102A40001910FFF71FFF05F8140009F00F00FFF73A
:102A500019FF012101EB440168540AF102001FFA39
:102A600080FA641C444504DA07EBD7714910A1428F
:102A7000E3DC5046DAE730B585B005460024142281
:102A8000AFF28C01684602F058FD00BF07E01DF868
:102A90000400A84202D1E0B205B030BD641C102C85
:102AA000F5DB0020F8E72DE9F05F0646144698466E
:102AB00000250027A946AA4616B90020BDE8F09FC8
:102AC0000CB90020FAE7002511E014F80590681C05
:102AD00014F800A05046FFF7CEFF83464846FFF7A4
:102AE000CAFF0BEB0010F055AD1C781C87B24545B2
:102AF000EBDB3846E2E770B59CB005460C46642136
:102B000003A802F06EFD0026B4A0FFF70FF8B74847
:102B1000807B28B9B649CA8A4878891CFFF75EFECF
:102B2000B44890F9E027B148817BB3A0FEF7FEFFDF
:102B3000AE48807B002844DD0020AD4908834FF477
:102B4000FA71AB481A3002F02AFD4FF4FA73A84A22
:102B50001A3221462846FFF75DFFA549088308463B
:102B60004078012808D1A34890F9E0272346A8A17E
:102B700003A802F0A3FA14E09D48407802280DD182
:102B80009B48C08ACDE900049A4890F9E02700F2FA
:102B9000E273A3A103A802F091FA02E000201CB0A6
:102BA00070BD002103A8FFF73CFC002190481A30BB
:102BB000FFF737FC01218CA0FFF733FC012800D17F
:102BC000EDE70020EBE72DE9F0439BB00026642100
:102BD00002A802F006FD00200190002500900BE005
:102BE0009548FFF729F80546002D04DD294692484F
:102BF000FFF7C1FB00E000E0F2E700BF694601A873
:102C0000FFF7B9F800287DDDBDF800309DF80420FD
:102C10008AA102A802F052FA002102A8FFF701FCE3
:102C200092E03220FEF7A2FF8348FFF705F8054641
:102C3000002D68DDAFF294317F4802F0FCFB00B15B
:102C400083E0AFF29C317C4802F0F5FB28B9AFF28B
:102C5000A031794802F0EFFB00B176E0022D05D1FA
:102C600061A1754802F0E7FB00B16DE04FF000088C
:102C7000C146714C0027204602F0D0FB00F0FF084F
:102C80006CA1204602F0D7FB0446002C51D0641CF6
:102C900068A1204602F0CFFB0446002C49D0641CFA
:102CA00064A1204602F0C7FB0446002C41D0641CFE
:102CB000204602F0B3FB1FFA80F99DF8040080451E
:102CC00037D1BDF80000814533D15AA1204602F02A
:102CD000B2FB04466CB3641C56A1204602F0ABFB69
:102CE000074637B3381B85B2002D22DD002040494E
:102CF00008834FF4FA713E481A3002F050FC2B461C
:102D0000224601E022E019E04FF4FA7138481A3007
:102D1000FFF7C9FE364908830846018B00F11A0205
:102D20004BA002F0BFF93248018B1A3002F0E2F8F2
:102D30000AE029464048FFF71EFB00BF701C86B220
:102D4000642E00DD01E000BF6BE700BF1BB0BDE8F3
:102D5000F083704770B504460E46154642F60221D0
:102D6000224802F01CFC002020498873FF212148E2
:102D700080F8E0171E4844703146801C02F09EF92E
:102D80001B48C5820120FFF730F8012133A0FFF76F
:102D900048FB012133A0FFF744FB012134A0FFF7DA
:102DA00040FB012136A0FFF73CFB012137A0FFF7D4
:102DB00038FB0121AFF24040FFF733FBFFF776FC11
:102DC000FFF7E0FBFFF7C6FBFFF708FCFFF70CFC83
:102DD000FFF754FCFFF782FC70BD00004E425F53CA
:102DE000656E64446174612E0D0A00003412002087
:102DF000143A002034320020436F6E6E6563743ADB
:102E000025642C736F636B65743A25642E0D0A007C
:102E100041542B4E534F53443D25642C25642C00C4
:102E200041542B4E534F53543D25642C25732C2570
:102E3000642C25642C0000004010002041542B4ECF
:102E4000534F52463D25642C25640D0A00000000B6
:102E500052583A25642C25732E0D0A0041544530F2
:102E60000D0A000041542B434D45453D310D0A00EC
:102E700041542B43455245473D310D0A00000000A7
:102E800041542B434F50533D300D0A0041542B43C6
:102E900053434F4E3D310D0A0000000008B501219B
:102EA000102001F011FA0220ADF8000010208DF87A
:102EB000030003208DF8020069460E4800F048FF29
:102EC00002210C4800F0F1FF08BD002803DD0021BD
:102ED000094A116002E00121074A1160704710B5EC
:102EE0000120FFF7F2FF642000F075FC0020FFF7DF
:102EF000ECFF10BD001001408401224210B5624871
:102F0000006820F47000604908600846006840F4DA
:102F10004010086000205D490860142000F05BFC50
:102F200001205B49C1F894011E2000F030FC10BD67
:102F300010B500245448006820F47000524908601D
:102F40000846006840F40000086004E0601CC4B259
:102F5000012000F01CFC4D488038006808B1642C4A
:102F6000F4DB642C01DB012010BD002404E0601CB4
:102F7000C4B2012000F00BFC44488038006808B956
:102F8000642CF4DB642C01DB0120EDE70020EBE78F
:102F900010B5002404E0601CC4B2012000F0F7FB6F
:102FA0003A488038006808B1642CF4DB002404E05F
:102FB000601CC4B2012000F0EAFB3448803800688D
:102FC00008B9642CF4DB282000F0E1FB2F4880389E
:102FD000006808B1012010BD0020FCE770B5002496
:102FE000002506E06006040EFFF7D2FF0443681CCC
:102FF000C5B2082DF6DB204670BD7CB505460E46F1
:10300000FFF77CFFFFF794FFF8B9002405E0FFF716
:10301000E5FF0DF80400601CC4B2052CF7DB9DF839
:1030200000009DF8011008449DF8021008449DF826
:10303000031008449DF80410884208D19DF8000050
:1030400030709DF80200287001E001207CBD002056
:10305000FCE708B50121082001F036F92020ADF881
:10306000000010208DF8030003208DF8020069464F
:10307000054800F06DFE2021034800F016FFFFF721
:103080003DFFFFF755FF08BD000C01409481214230
:103090000080214200B587B001214FF4047001F097
:1030A00013F94FF4004001F073F82C20ADF8040040
:1030B00000208DF8070001A9D34800F049FED3484D
:1030C00001F0F0FC002002908DF80C008DF80D004E
:1030D0004FF4602004900020059001208DF8180026
:1030E00002A9CA4801F005FD0121C84801F02DFDE3
:1030F000C64801F04CFD00BFC44801F04DFD00285A
:10310000FAD1C24801F052FD00BFC04801F053FDA2
:103110000028FAD107B000BD10B5044607230122EC
:103120002146BA4801F07DFD0121B84801F04DFD6E
:1031300000BF0221B54801F0B9FE0028F9D0B3481C
:1031400001F0D6FD10BD2DE9F04107460C460025E3
:10315000002608E03846FFF7DFFF0544012000F0B5
:103160003AFB701CC6B2A642F4DBB5FBF4F080B2A9
:10317000BDE8F08108B50121102001F0A5F84FF459
:103180008050ADF8000010208DF8030003208DF86A
:10319000020069469C4800F0DBFD4FF480519A48DC
:1031A00000F083FE08BD2DE9F04F87B04FF4805149
:1031B000954800F07CFE4FF48C7000F0E8FA0F2088
:1031C000FFF7AAFF044605F02DF90490282000F02F
:1031D000DEFA4FF480518C4800F067FE42F2D05086
:1031E00000F0D5FA4FF08B41049805F021F80190DA
:1031F00004F090FF80464FF06632854B04F07AFC75
:10320000844A854BCDE9020104F0DEF90646834A83
:10321000834B04F06FFC0446824A834B04F090FE1B
:10322000824604F09FF90590059807B0BDE8F08F3D
:103230002DE9F04782464FF000527C4B7C487D4997
:1032400003F052FC06460F46504604F063FF8046EA
:1032500032463B4604F074FA044604F083F976499A
:103260000860BDE8F0872DE9FF5F0A210D20FFF718
:103270006AFF0390039805F0D5F805466F4905F0FD
:10328000E5F804464FF08B4104F0D2FF82465046E9
:1032900004F040FF80466A4A6A4B04F095F90646FE
:1032A0000022694B04F026FC044604F0A1FB0090C8
:1032B00005F0A0F88346654904F0BAFF82465146FE
:1032C0005E4805F08FF90546514604F0B1FF04460B
:1032D0005F4905F0BBF802900298FFF7A9FF564836
:1032E0000168029804F0A4FF834604F013FF064629
:1032F0004FF08042574B03F0F7FB04464FF000526B
:10330000554B04F0F7FB804604F02CF9019001982E
:1033100005F050F880B204B0BDE8F09F2DE9F04709
:1033200082464FF060424D4B4D484E4903F0DCFB66
:1033300006460F46504604F0EDFE804632463B46B8
:1033400004F0FEF9044604F00DF93B490860BDE8BD
:10335000F0872DE9FF5F0A210C20FFF7F4FE0390B0
:10336000039805F05FF80546344905F06FF8044608
:103370004FF08B4104F05CFF8246504604F0CAFED9
:1033800080462F4A2F4B04F01FF9064600222E4B91
:1033900004F0B0FB044604F02BFB009005F02AF883
:1033A00083462A4904F044FF82465146234805F0EB
:1033B00019F90546514604F03BFF0446244905F03F
:1033C00045F802900298FFF7A9FF1B480168029890
:1033D00004F02EFF834604F09DFE06464FF0404267
:1033E000214B03F081FB04464FF020421F4B04F0B9
:1033F00081FB804604F0B6F80190019804F0DAFFF2
:1034000080B204B0BDE8F09F0010014000240140EC
:1034100066660A40CDCCCCCCCCCCEC3FC3F5285C66
:103420008FC2C53F9A9999999999B93F2A93EDBF4F
:1034300002387E4E517FD13F1C0000203333534071
:103440007B14AE47E17A743F000059400000C84247
:1034500000002041DF4FF1BFDB494240A7F2E5BF4A
:10346000EBFA4F397209BA3FF753F7BF9B945840B4
:1034700008B54FF40060ADF8000010208DF803008F
:1034800003208DF802006946B14800F061FC08BDD8
:1034900010B5FFF7EDFF0020AE490860AE49C1F856
:1034A000AC01142000F073F90120AA490860AA4970
:1034B000C1F8AC01142000F06AF910BD10B500206D
:1034C000A4490860FFF7D4FF0020A349C1F8AC016C
:1034D000142000F05CF901209E490860142000F0DF
:1034E00056F900209C49C1F8A80110BD10B5002074
:1034F00098490860FFF7BCFF01209749C1F8AC016B
:10350000142000F044F9012092490860142000F0D2
:103510003EF900209049C1F8A80110BD08B54FF44C
:103520000060ADF8000001208DF8020004208DF845
:1035300003006946864800F00BFC08BD70B50546DF
:103540000024FFF7EBFF00261AE000208149086005
:10355000142000F01CF901207F49C1F8A8014FF6A2
:10356000FF7000EA44044FF40061794800F083FCE6
:1035700008B1601C84B2142000F009F9701CC6B2B6
:10358000082EE2DB15B9FFF7B1FF01E0FFF796FF68
:10359000204670BD10B50024FFF7C0FF01206D4923
:1035A000091D08600A2000F0F2F801206A49C1F8FC
:1035B000A8010A2000F0EBF807E0601CC4B2FA2C66
:1035C00003DDFFF765FF012010BD4FF40061604887
:1035D00000F051FC0028F0D15E49086000BFF3E71D
:1035E00070B50446FFF744FF00205A4908600025E3
:1035F0001EE0E00920B101205649091D086003E0E2
:1036000000205449091D08606006040E142000F0D3
:10361000BEF801204F490860142000F0B8F80020DF
:103620004D49C1F8A801142000F0B1F8681CC5B2DA
:10363000082DDEDB142000F0AAF870BD10B5FFF7EE
:1036400017FF01204349091D08604349C1F8A8013B
:10365000142000F09CF800203E49091D0860142049
:1036600000F095F800203C49C1F8A80110BD70B5E4
:10367000FFF7E4FFB120FFF7B3FFFFF78BFF012057
:10368000FFF75CFF044624020120FFF757FF0444C4
:103690000120FFF753FFC5B200BF24020120FFF74E
:1036A0004DFF044424020020FFF748FF0444FFF7C5
:1036B000EFFE204670BD70B505460C46FFF7BEFF15
:1036C000B020FFF78DFFFFF765FF2846FFF788FF63
:1036D000FFF760FF2046FFF783FFFFF75BFFFFF771
:1036E000D7FE642000F077F870BD70B50821202067
:1036F000FFF7E1FFFFF7BBFF0446A5B24FF4FA70F6
:1037000000F069F8284670BD08B50121102000F0CE
:10371000DBFD4FF48060ADF8000010208DF8030051
:1037200003208DF802006946094800F011FB4FF4B0
:103730000060ADF800006946054800F009FB08BDCF
:1037400010B5FFF7E1FF03212020FFF7B4FF10BD04
:1037500000100140A80122420000224210B56FF083
:10376000040000F076FA2E4800682E49B0FBF1F014
:103770002D4908700846007800EB4001C1EBC010ED
:103780004FF6FF7101EAC0002849088010BD0146CC
:10379000254A12784A434FF0E0235A6100229A6189
:1037A0001A46126942F001021A6100BF4FF0E0228E
:1037B000106900F001021AB100F48032002AF5D03D
:1037C0004FF0E022126922F001024FF0E0231A616B
:1037D00000229A6170470146144A12884A434FF00A
:1037E000E0235A6100229A611A46126942F00102EE
:1037F0001A6100BF4FF0E022106900F001021AB117
:1038000000F48032002AF5D04FF0E022126922F055
:1038100001024FF0E0231A6100229A617047000014
:103820000000002000127A0020000020220000206A
:10383000014600BF704700BF3F4A128802F04002B5
:10384000002AF9D0C2B23C4B1B1D1A8070470146BA
:1038500000BF704710B586B00446012144F2040051
:1038600000F032FD4FF40070ADF8140003208DF825
:10387000160018208DF8170005A9304800F068FAE6
:103880004FF48060ADF8140004208DF8170005A9EE
:103890002A4800F05DFA25208DF8000003208DF8FD
:1038A00001008DF8020001208DF80300684600F049
:1038B00086F901940020ADF80800ADF80A00ADF8D3
:1038C0000C00ADF810000C20ADF80E0001A91A484C
:1038D00000F0A1FD012240F22551174800F033FE0F
:1038E0000121154800F023FE06B010BD10B540F2CE
:1038F0002551114800F00CFF18B10F4800F088FE68
:10390000C4B210BD10B5044621460B4800F07CFE41
:1039100000BF8021084800F0E5FE0028F9D010BD66
:1039200070B505460E46002403E0285DFFF7EAFF68
:10393000641CB442F9D370BD003801400008014056
:1039400008B50121082000F0BFFC0220ADF80000FE
:1039500010208DF8030003208DF8020069464348CB
:1039600000F0F6F900204249086008BD10B586B0A5
:1039700004460121042000F0A7FC0121480400F0C6
:10398000B0FC0420ADF8140003208DF816001820B8
:103990008DF8170005A9374800F0DAF90820ADF8CE
:1039A000140004208DF8170005A9324800F0D0F962
:1039B00026208DF8000003208DF801008DF802000C
:1039C00001208DF80300684600F0F9F8019400200A
:1039D000ADF80800ADF80A00ADF80C00ADF8100025
:1039E0000C20ADF80E0001A9234800F014FD0122BF
:1039F00040F22551204800F0A6FD01211E4800F0AC
:103A000096FDFFF79DFF06B010BD10B540F22551A1
:103A1000194800F07DFE18B1174800F0F9FDC4B256
:103A200010BD10B504462146134800F0EDFD00BF5F
:103A30008021114800F056FE0028F9D010BD70B565
:103A400005460E46002403E0285DFFF7EAFF641CEC
:103A5000B442F9D370BD012803D10121044A116099
:103A600002E00021024A116070470000000C014092
:103A700084812142000801400044004010B586B016
:103A800004460121082000F01FFC0121880400F0F9
:103A900028FC4FF48060ADF8140003208DF8160068
:103AA00018208DF8170005A9304800F051F94FF49F
:103AB0000060ADF8140004208DF8170005A92B480C
:103AC00000F046F927208DF8000003208DF8010052
:103AD0008DF8020001208DF80300684600F06FF8B1
:103AE00001940020ADF80800ADF80A00ADF80C0014
:103AF000ADF810000C20ADF80E0001A91C4800F034
:103B00008AFC012240F22551194800F01CFD0121D8
:103B1000174800F00CFD06B010BD10B540F225515D
:103B2000134800F0F5FD30B1114800F071FDC4B24A
:103B30002046FEF74AF810BD10B5044621460C4851
:103B400000F062FD00BF8021094800F0CBFD002895
:103B5000F9D010BD70B505460E46002403E0285D7F
:103B6000FFF7EAFF641CB442F9D370BD000C0140BA
:103B7000004800400948804709480047FEE7FEE743
:103B8000FEE7FEE7FEE7FEE7FEE7FEE7FEE7FEE70D
:103B900004480549054A064B70470000F305000834
:103BA00031010008903E0020904400209040002009
:103BB0009040002031490143314A1160704770B58F
:103BC000002100230F22C47804B32D4C246804F490
:103BD000E064C4F5E064210AC1F10403CA404478FA
:103BE00004FA03F18478144021430901254C067836
:103BF000A155047804F01F050124AC4005786D112F
:103C0000AD0005F1E025C5F8004109E0047804F0B5
:103C10001F050124AC401C4D0678761145F826405E
:103C200070BD1A4A0A400243154B1B1F1A607047A9
:103C300039B1134A121D12680243114B1B1D1A6041
:103C400006E00F4A121D126882430D4B1B1D1A60BD
:103C50007047042808D14FF0E021096941F00401C0
:103C60004FF0E022116107E04FF0E021096921F0F7
:103C700004014FF0E0221161704700000000FA05D6
:103C80000CED00E000E400E080E100E080FFFF1FB9
:103C900010B50446CC48844208D10121042000F02C
:103CA0002DFB0021042000F029FB46E0C748844298
:103CB00008D10121082000F021FB0021082000F09C
:103CC0001DFB3AE0C248844208D10121102000F0D7
:103CD00015FB0021102000F011FB2EE0BD488442AE
:103CE00008D10121202000F009FB0021202000F054
:103CF00005FB22E0B848844208D10121402000F0B1
:103D0000FDFA0021402000F0F9FA16E0B3488442A1
:103D100008D10121802000F0F1FA0021802000F07C
:103D2000EDFA0AE0AE48844207D10121801500F087
:103D3000E5FA0021A01500F0E1FA10BD10B501214F
:103D4000084600F0DBFA0021012000F0D7FA10BD90
:103D50002DE9F04102460025002600200023002422
:103D6000002791F803C00CF00F0591F803C00CF088
:103D7000100CBCF1000F03D091F802C04CEA05050D
:103D800091F800C0BCF1000F31D0146800202BE086
:103D90004FF0010C0CFA00F3B1F800C00CEA030676
:103DA0009E4220D183004FF00F0C0CFA03F7BC4366
:103DB00005FA03FC4CEA040491F803C0BCF1280F97
:103DC00006D14FF0010C0CFA00FCC2F814C00AE056
:103DD00091F803C0BCF1480F05D14FF0010C0CFA6B
:103DE00000FCC2F810C0401C0828D1D31460B1F800
:103DF00000C0BCF1FF0F34DD546800202EE000F15C
:103E0000080C4FF0010808FA0CF3B1F800C00CEAF6
:103E100003069E4221D183004FF00F0C0CFA03F7EA
:103E2000BC4305FA03FC4CEA040491F803C0BCF15E
:103E3000280F05D100F1080C08FA0CF8C2F814801C
:103E400091F803C0BCF1480F07D100F1080C4FF006
:103E5000010808FA0CF8C2F81080401C0828CED3DC
:103E60005460BDE8F0814FF6FF710180022181703E
:103E70000421C17070470246002093680B400BB1CB
:103E8000012000E0002070470146886880B270473A
:103E900002460020D3680B400BB1012000E0002057
:103EA00070470146C86880B2704701617047416140
:103EB00070470AB1016100E041617047C16070471D
:103EC0004FF480320A438261816182618269826932
:103ED000704702460020434B18684FF68073184025
:103EE00040EA021008433F4B186070473E49C861E2
:103EF0007047F0B50A46002300240021002500F099
:103F00000046B6F1004F02D1364EF16901E0354E60
:103F10007168C0F3034583B200F44016B6F5401F44
:103F200008D121F070612F4E766826F070662D4F13
:103F30007E6012E000F48016B6F5801F06D10326DD
:103F400006FA05F4A14341F0706106E0460D360122
:103F500003FA06F6B14341F0706122B1460D360115
:103F600003FA06F6314300F00046B6F1004F02D1E5
:103F70001C4EF16101E01B4E7160F0BD30B50022B6
:103F80008B071C0F0F2303FA04F2164B08338C1017
:103F900053F824309343134C08348D1044F82530E3
:103FA00023468C1053F824308C07240F00FA04F4B5
:103FB00023430C4C08348D1044F8253030BD0A4999
:103FC000DC3108607047000000080140000C01402F
:103FD000001001400014014000180140001C014085
:103FE000002001400000014000002042DF4800683E
:103FF00040F00100DD49086008464068DC4908409F
:10400000DA49486008460068DA490840D74908603C
:104010000846006820F4802008600846406820F4C4
:10402000FE0048604FF41F0088607047CF49096860
:1040300021F48031CD4A11601146096821F48021B4
:104040001160B0F5803F03D0B0F5802F0ED106E0AF
:10405000C649096841F48031C44A116007E0C34988
:10406000096841F4A021C14A116000E000BF00BF0F
:10407000704710B501460022002300204A11012A92
:1040800002D1BA4C236806E0022A02D1B74C236A57
:1040900001E0B64C636A01F01F02012494401C4009
:1040A0000CB1012000E0002010BD38B500200090C8
:1040B0000024002500BF3120FFF7DBFF05460098F4
:1040C000401C00900098B0F5A06F01D0002DF2D0F8
:1040D0003120FFF7CEFF08B1012400E00024204684
:1040E00038BD01460020A14A106820F0F80040EADF
:1040F000C10010607047A049086070470246002068
:104100009A4B586820F47C1042EA01031843974BFD
:104110005860704798490866704701460020934AE6
:10412000506820F003000843506070478F48406893
:1041300000F00C007047014600208C4A506820F0C7
:10414000F00008435060704701460020874A5068DD
:1041500020F4E06008435060704701460020834A25
:10416000506820F4605040EAC1005060704729B1A7
:104170007E4A527A02437D4B5A7204E07B4A527A5D
:1041800082437A4B5A7270477B49D8310860704736
:1041900001460020754A506820F4404008435060B2
:1041A00070470021714A20321170704A82F8201045
:1041B000012802D004280AD104E001216B4A2032F0
:1041C000117005E00521694A2032117000E000BF3E
:1041D00000BF70476949086070476449096A014334
:1041E000624A11627047654944390860704730B5CA
:1041F00000210022002400235C4D6D6805F00C01B5
:1042000021B1042905D0082923D105E05C4D0560C2
:1042100022E05B4D05601FE0544D6D6805F470129F
:10422000524D6D6805F48034022505EB92421CB9AD
:10423000544D554305600BE04C4D6D6805F4003559
:104240001DB1504D5543056002E04D4D554305608D
:1042500002E04B4D056000BF00BF444D6D6805F0A6
:10426000F0010909484D6B5C0568DD4045603F4D34
:104270006D6805F4E061090A434D6B5C4568DD40FB
:1042800085603A4D6D6805F46051C90A3E4D6B5C1E
:104290004568DD40C560354D6D6805F44041890BCA
:1042A0003A4D6B5CC568B5FBF3F5056130BD29B1CE
:1042B0002E4A526902432D4B5A6104E02B4A52693F
:1042C00082432A4B5A61704729B1284A92690243B6
:1042D000264B9A6104E0254A92698243234B9A61F6
:1042E000704729B1214AD2690243204BDA6104E0C8
:1042F0001E4AD26982431D4BDA61704729B11B4ABD
:10430000D2680243194BDA6004E0184AD26882434B
:10431000164BDA60704729B1144A12690243134BF5
:104320001A6104E0114A12698243104B1A61704706
:1043300012494039086070470F49C86470470B49FB
:10434000C87170470948406A40F080700749486268
:10435000704701460020054A92680A400AB10120D0
:1043600000E0002070470149887270470010024049
:104370000000FFF8FFFFF6FE0000424280044242C8
:1043800000127A0000093D002800002038000020BB
:1043900010B50446FB48844209D101218803FFF788
:1043A000ADFF00214FF48040FFF7A8FF32E0F64850
:1043B000844209D101214804FFF7ADFF00214FF4E9
:1043C0000030FFF7A8FF25E0F048844209D1012121
:1043D0008804FFF7A0FF00214FF48020FFF79BFF28
:1043E00018E0EB48844209D10121C804FFF793FF8C
:1043F00000214FF40020FFF78EFF0BE0E5488442D8
:1044000008D101210805FFF786FF00214FF4801035
:10441000FFF781FF10BD2DE9F04786B005460E4637
:104420000024A24600BFA1460027B08900B100BF0A
:104430002F462C8A4CF6FF700440F08804432C82EF
:10444000AC894EF6F3100440B08831890843718975
:1044500008430443AC81AC8A4FF6FF400440B08966
:104460000443AC8201A8FFF7C2FEC648874202D1CE
:10447000DDF810A001E0DDF80CA0A88900F40040F0
:1044800040B10AEBCA0000EB0A1031684900B0FBEA
:10449000F1F807E00AEBCA0000EB0A103168890066
:1044A000B0FBF1F86420B8FBF0F0040120096421AE
:1044B00001FB1089A88900F4004040B1322000EBD4
:1044C000C900B0FBF1F000F00700044308E032201F
:1044D00000EB09106421B0FBF1F000F00F00044381
:1044E0002C8106B0BDE8F0874FF416510160002121
:1044F0008180C18001810C2141810021818170472F
:1045000010B502460020108A4FF2FF0318400B88B6
:104510004C8823438C882343CC8823431843108240
:1045200010BD0021018041808180C180704721B190
:10453000828942F40052828104E082894DF6FF7341
:104540001A4082817047F0B50346002400260025FA
:10455000002040F66A17B94200D100BF1846C1F3E7
:10456000421401F01F06012707FA06F5012C01D1BC
:104570000C3004E0022C01D1103000E014301AB1EC
:1045800007682F43076002E00768AF430760F0BD8C
:104590001AB1838A0B43838202E0838A8B4383822E
:1045A0007047028A4FF6F0731A400282028A0A4369
:1045B0000282704782894FF2FF731A40828182899A
:1045C0000A438281704721B1828942F002028281CE
:1045D00004E082894FF6FD731A4082817047028A97
:1045E0004FF6DF731A400282028A0A430282704742
:1045F00021B1028A42F48042028204E0028A4BF630
:10460000FF731A4002827047C1F30802828070472C
:1046100001468888C0F308007047818941F0010194
:1046200081817047028BD2B20283028B42EA01225F
:1046300002837047028B02F47F420283028B0A439B
:104640000283704721B1828A42F02002828204E014
:10465000828A4FF6DF731A408282704721B1828AC4
:1046600042F01002828204E0828A4FF6EF731A4011
:104670008282704721B1828A42F00802828204E07D
:10468000828A4FF6F7731A408282704721B182897D
:1046900042F40042828103E08289C2F30E028281E9
:1046A000704721B1828A42F40062828204E0828AE9
:1046B0004FF2FF731A4082827047828A4FF6FB7373
:1046C0001A408282828A0A438282704721B1828A9A
:1046D00042F00202828204E0828A4FF6FD731A40A1
:1046E0008282704702460020B1F5007F00D100BFF2
:1046F00013880B400BB1012000E00020704701F44B
:104700000072B2F5007F00D100BFCA43028070473B
:1047100070B50246002400230025002040F66A16EA
:10472000B14200D100BFC1F3421501F01F030126C1
:1047300006FA03F3012D02D19689334006E0022DDB
:1047400002D1168A334001E0968A33400C120126CA
:1047500006FA04F41688344013B10CB1012000E0CD
:10476000002070BD10B50022002340F66A14A1425B
:1047700000D100BF0A1201249440A3B2DC4304809C
:1047800010BD0000003801400044004000480040D7
:10479000004C00400050004010B50446BE48844222
:1047A00008D101218014FFF7A9FD0021A014FFF713
:1047B000A5FD16E0B948844208D101210014FFF795
:1047C000AAFD00212014FFF7A6FD0AE0B4488442A8
:1047D00007D10121C013FFF79EFD0021E013FFF771
:1047E0009AFD10BD10B50022028802F441520B88D8
:1047F0004C8823438C882343CC8823430C89234350
:104800004C8923438C892343CC8923431A43028058
:10481000838B4FF2FF74234083830B8A038210BD86
:104820002DE9F04F85B005460C464FF000090227F0
:104830004FF000084FF0010B0026B246A88B4FF254
:1048400040010840A88302202884B5F81C90A06885
:10485000022801D100BF38E0A08810B94FF0010B49
:1048600001E04FF0020B8D48854200D100E000BF0F
:104870006846FFF7BCFCDDF800A0E088B0F5007FDB
:104880000AD14FEA1A2000EB80004000A168B0FB7B
:10489000F1F0401D86B20BE04FEA4B10BAFBF0F08E
:1048A00000EB80004000A168B0FBF1F0401D86B233
:1048B0000A20B6FBF0F606F00108A6EB0800C0F3EC
:1048C0004F074FF6FF7000EA0828022F01DBFF2F89
:1048D00002DD02274FF00008E08840EA0800384374
:1048E0002884A088A1890843618808432188084357
:1048F00040F4006040EA0909A5F81C9005B0BDE845
:10490000F08F0021018041808180C180018141813F
:104910008181C1810721018270470021018041808E
:104920008180C1800221816000218181704721B195
:10493000028842F04002028004E002884FF6BF7312
:104940001A400280704721B1828B42F480628283D8
:1049500004E0828B4FF6FF331A408283704730B5F4
:10496000002400230C110125A540ABB21AB18588A3
:104970001D43858002E085889D43858030BD1AB146
:1049800083880B43838002E083888B438380704756
:10499000818170470146888970474FF6FF629142D6
:1049A00004D0028842F48072028004E002884FF64C
:1049B000FF631A400280704721B1828842F00402EE
:1049C000828004E082884FF6FB731A408280704731
:1049D00002884FF2FF731A40028002880A43028065
:1049E0007047018841F480510180704721B10288ED
:1049F00042F40052028004E002884DF6FF731A4030
:104A00000280704702460020012901D0108B00E08F
:104A1000908A70470146088A7047B1F5804F04D1EB
:104A2000028842F48042028004E002884BF6FF7361
:104A30001A40028070470246002013890B400BB1D8
:104A4000012000E000207047CA4302817047F0B5A2
:104A50000246002000240023002501F00F07012654
:104A6000BE40B4B20B1101269E40B3B2968806EA4E
:104A700003051689264016B10DB1012000E0002083
:104A8000F0BD10B5002201F00F040123A3409AB23B
:104A9000D343038110BD00000030014000380040C6
:104AA000003C004010B50446FA48844208D1012178
:104AB0004015FFF723FC00216015FFF71FFC17E0EE
:104AC000F548844208D101210015FFF717FC0021A9
:104AD0002015FFF713FC0BE0F048844208D10121B8
:104AE000C803FFF70BFC00214FF40040FFF706FC62
:104AF00010BD30B50246002000235068E84C20402D
:104B00000D790C6844EA0524204350609068E54C18
:104B10002040D1E902542C434D7944EA4504204316
:104B20009060D06A20F470000C7C641EE4B22343D1
:104B300040EA0350D06230BD002101600171417133
:104B40008160C16001210174704721B1826842F027
:104B50000102826003E0826822F0010282607047F5
:104B600021B1826842F48072826003E0826822F49C
:104B700080728260704710B50023CBB21AB14468CE
:104B80001C43446002E044689C43446010BD81685B
:104B900041F0080181607047014600208A6802F0F8
:104BA00008020AB1012000E000207047816841F04E
:104BB000040181607047014600208A6802F0040207
:104BC0000AB1012000E00020704721B1826842F460
:104BD000A002826003E0826822F4A0028260704733
:104BE000014600208A6802F480020AB1012000E038
:104BF0000020704710B50A4600210023416821F4C7
:104C00006041531E41EA4331416010BD21B1426809
:104C100042F40062426003E0426822F400624260B3
:104C20007047F0B504460D4600200021092D11DD26
:104C3000E068A5F10A0606EB4607072606FA07F123
:104C40008843A5F10A0606EB460603FA06F1084377
:104C5000E0600CE0206905EB4507072606FA07F13E
:104C6000884305EB450603FA06F108432061072A4D
:104C70000FDA606B561E06EB86071F2606FA07F151
:104C80008843561E06EB860605FA06F10843606364
:104C900022E00D2A0FDA206BD61F06EB86071F26AF
:104CA00006FA07F18843D61F06EB860605FA06F1D9
:104CB0000843206310E0E06AA2F10D0606EB8607C8
:104CC0001F2606FA07F18843A2F10D0606EB8606B9
:104CD00005FA06F10843E062F0BD21B1826842F4B2
:104CE0008012826003E0826822F480128260704742
:104CF0000146C86C80B2704766484C300068704707
:104D000021B1426842F48062426003E0426822F4CA
:104D100080624260704721B1426842F48052426032
:104D200003E0426822F48052426070470A46002144
:104D3000816821F4E04111438160704721B18268AC
:104D400042F40042826003E0826822F40042826002
:104D5000704721B1826842F40212826003E08268E7
:104D600022F4021282607047014600208A6802F431
:104D700000120AB1012000E000207047F0B504469F
:104D80001546002000220026092911DDE068A1F166
:104D90000A0707EB470C072707FA0CF29043A1F12B
:104DA0000A0707EB470703FA07F21043E0600CE03D
:104DB000206901EB410C072707FA0CF2904301EB45
:104DC000410703FA07F210432061A06BC0F30156BC
:104DD000EF1C06F1010CA7EB0C0707EB870C1F2754
:104DE00007FA0CF29043EF1C06F1010CA7EB0C073D
:104DF00007EB870701FA07F21043A063F0BD10B577
:104E00000A4600210023816B21F44011531E41EA20
:104E10000351816310BD08B5002300930090009BEF
:104E20000B440093009B1A6008BD08B502460020A1
:104E30000090009201F12800009B18440090009817
:104E4000006880B208BD0A4600214168164B19402F
:104E50001143416070474162826270470A460021F7
:104E6000416821F01F0111434160704740B1094979
:104E70000831096841F40001064A0832116007E070
:104E800004490831096821F40001024A083211601E
:104E9000704700000024014000280140003C014010
:104EA000FFFEF0FFFDF7F1FFFFFD3FFF0246002090
:104EB00013680B400BB1012000E000207047CA438B
:104EC0000260704770B502460020002300240B12D8
:104ED0005568CEB205EA060415681D4015B10CB13F
:104EE000012000E0002070BD00220A12D3430360BD
:104EF000704700002DE9F04105460E4600240027CA
:104F000015B90020BDE8F0810EB90020FAE73C4851
:104F10000078012812D13BA1284600F08CFA044603
:104F200064B10834204600F079FAC7B21FB938A03E
:104F300000F0B8F802E039A000F0B4F800203049E1
:104F4000087000BFDEE72DE9F041CCB004460D4605
:104F500016460027642133A800F043FBC82101A8AE
:104F600000F03FFBB8462648007818B100204CB04E
:104F7000BDE8F0810EB90020F9E732462BA133A835
:104F800000F09CF833A800F068FA87B20FB900204F
:104F9000EDE74FF4FA71264800F001FB224625495F
:104FA000234800F08BF824A1214800F075FA2A4626
:104FB00028A101A800F082F801A91D4800F06CFAB0
:104FC0003A4628A101A800F079F801A9184800F094
:104FD00063FA11A1164800F05FFA33A9144800F0F3
:104FE0005BFA134800F039FA1FFA80F8414610487E
:104FF000FDF781FD012801D1014908700020B6E7C5
:105000003C000020226572726E6F223A00000000A0
:10501000504F5354204F4B210D0A0000504F535412
:10502000206572726F72210D0A0000002573000066
:10503000363C00208CA70008486F73743A206170DA
:10504000692E6865636C6F7564732E636F6D0D0AEE
:10505000000000006170692D6B65793A2025730DA1
:105060000A000000436F6E74656E742D4C656E67A8
:1050700074683A2025640D0A0000000070470000A3
:105080001CB50C46064B7B4469460090204600F058
:1050900076FD04460020694600F084FD20461CBDD4
:1050A0001B0B00000FB4044910B503AA029800F0CE
:1050B00095FD10BC5DF814FB240000200FB41CB556
:1050C000084B06AA7B4469460090059800F057FDFE
:1050D00004460020694600F065FD20461CBC5DF8D2
:1050E00014FB0000DD0A000070B504468569006805
:1050F000C10601D5302600E02026C00707D070BDCC
:10510000D4E9012130469047206A401C20626D1E80
:10511000F6D570BD70B5044685690078C00707D123
:1051200070BDD4E9012120209047206A401C2062F4
:105130006D1EF6D570BD70B50C460546012A05D02A
:105140002878800600D5EA69002302E0012305E003
:105150005B1C934202D2E05C0028F9D1A869E618F2
:10516000C01AA861286A184428622846FFF7BCFFC5
:1051700004E0D5E9012114F8010B9047B442F8D3BB
:105180002846FFF7C7FF70BD2DE9F0410646002411
:1051900010687529314616A510D000F05CFA002879
:1051A00002DA404213A507E031688A0701D512A54B
:1051B00002E0490704D511A5012401E000F054FAEA
:1051C00000210A2206F1240709E0B0FBF2FCB0FB43
:1051D000F2F302FB1C00303078541846491C0028BA
:1051E000F3D123462A463046BDE8F04100F045BAE7
:1051F000000000002D0000002B0000002000000037
:10520000F0B40D460188090502D5214C7C4402E02A
:105210001F4C7C440E34002100F1240608E002F00B
:105220000F071209E75D42EA03721B097754491C14
:1052300052EA0307F3D102780023120704D5702D38
:1052400006D009B1022311342246F0BC00F015BA91
:1052500001231034F8E770B504460D462146106866
:1052600000F002FA024629462046BDE870400023BD
:10527000C6E7D21D22F00703D3E90023C0E7036885
:10528000126843F0200303600823C3610023B7E7DB
:10529000165400002DE9F05F894604464FF0000ADD
:1052A000DFF874B1FB44C0F820A02046E1688847CD
:1052B000002874D0252806D0D4E901219047206A1F
:1052C000401C2062F1E700265F462046E1688847DF
:1052D0002028054607DB312D05D2781910F8200C5F
:1052E00008B10643F1E7B00701D526F00406C4F87B
:1052F0001CA00027C4F818A02A2D09D0284601F0C8
:10530000EBFB38B304EB8708303DC8F8185019E0C0
:1053100059F8041B204604EB87029161E168884735
:10532000012F054618D1E069002820DA26F0200672
:105330001DE0D8F8180000EB800005EB4000303885
:10534000C8F818002046E1688847054601F0C4FB0C
:105350000028EED1012F0AD02E2D08D12046E16879
:1053600088477F1C0546022F46F02006C4DBA06953
:10537000002803DA404246F00106A061F00701D0A0
:1053800026F010066C2D0BD0682D09D04C2D39D08D
:105390006A2D35D0742D35D07A2D33D016E038E013
:1053A000E1682F4620468847B842054609D16C2F50
:1053B00026D04FF48060E1680643204688470546C2
:1053C00004E06C2F1AD04FF4807006430DB3A5F1A2
:1053D0004100192802D8203546F400664A4629467D
:1053E000204626604E46FAF7DDFE80B101280BD03C
:1053F000F61D26F0070000F1080956E74020E4E713
:105400008020D8E70020D6E706F104094DE72846BA
:1054100052E7206ABDE8F09FA653000070B506462B
:1054200000F00AF90468054630460A22002100F01F
:10543000BBFC2C6070BD30B505460B462A4613F800
:10544000014B12F8010B08B1A042F8D01CB10028A2
:1054500002D06D1CF1E7284630BD10B5431C02E0B8
:1054600010F8011B71B18107FAD14FF0013202C867
:105470008C1A8C4314EAC211F9D0C01A0A0603D060
:10548000C01E10BDC01A10BD0A0401D0801E10BD80
:105490000902FCD0401E10BD421E12F8013F002B35
:1054A000FBD111F8013B002B02F8013BF9D1704709
:1054B000032A40F2308010F0030C00F0158011F840
:1054C000013BBCF1020F624498BF11F801CB00F818
:1054D000013B38BF11F8013BA2F1040298BF00F86C
:1054E00001CB38BF00F8013B11F0030300F0258029
:1054F000083AC0F0088051F8043B083A51F804CB50
:10550000A0E80810F5E7121D5CBF51F8043B40F815
:10551000043BAFF30080D20724BF11F8013B11F820
:1055200001CB48BF11F8012B24BF00F8013B00F864
:1055300001CB48BF00F8012B704710B5203AC0F0EE
:105540000B80B1E81850203AA0E81850B1E8185084
:10555000A0E81850BFF4F5AF5FEA027C24BFB1E8C1
:105560001850A0E8185044BF18C918C0BDE8104032
:105570005FEA827C24BF51F8043B40F8043B08BF3B
:105580007047D20728BF31F8023B48BF11F8012B02
:1055900028BF20F8023B48BF00F8012B70474FF0AE
:1055A00000020429C0F0128010F0030C00F01B80F0
:1055B000CCF1040CBCF1020F18BF00F8012BA8BFFE
:1055C00020F8022BA1EB0C0100F00DB85FEAC17CC2
:1055D00024BF00F8012B00F8012B48BF00F8012B75
:1055E00070474FF0000200B51346944696462039A6
:1055F00022BFA0E80C50A0E80C50B1F12001BFF48C
:10560000F7AF090728BFA0E80C5048BF0CC05DF8F1
:1056100004EB890028BF40F8042B08BF704748BF3F
:1056200020F8022B11F0804F18BF00F8012B7047B3
:105630007047704770477047004870472C3E002005
:1056400010B5FFF7F9FF006810BD10B50446FFF76D
:10565000F3FF046010BD09684A0501D540B27047E8
:10566000C905FCD500B2704709684A0501D5C0B22A
:105670007047C905FCD580B270472DE9F0470D464B
:1056800099469246044600F124080168880604D52C
:10569000E06921F01001216000E00120A84201DD55
:1056A000471B00E00027A1697A1902EB0900081ADC
:1056B000A0612078C00602D42046FFF715FD002621
:1056C00008E0D4E901211AF806009047206A401C3E
:1056D000761C20624E45F4DB2078C0060AD52046B1
:1056E000FFF702FD06E0D4E9012130209047206A4F
:1056F000401C2062381EA7F10107F4DC07E0D4E962
:10570000012118F805009047206A401C2062281EDD
:10571000A5F10105F3DC2046FFF7FCFC207800062C
:1057200002D50220BDE8F0870120FBE7116802687E
:10573000006A530501D508700AE0D30501D5088039
:1057400006E0130603D5C217C1E9000200E00860B5
:105750000120704770472DE9FF4F0C461E464FF061
:10576000FF378BB0D2E90001DDF860800A908A46ED
:10577000C1F30A5505B93D46002108464FF0000027
:10578000BAF1000F00F4400005DA00EB80004FF49E
:10579000400101EA50004FEA9059B9F1010F00DDD4
:1057A000B9460A9850EA4A000ED044F61050A5F2C5
:1057B000FF3545432F14B8F1000F1ED07542291E46
:1057C0001EDDC9F100021CE0B8F1010F4FF000002E
:1057D00001D0302103E0F24305E02154401CB042E7
:1057E000FBDB30460022002121540B99C1F80880D0
:1057F000C1E900200FB0BDE8F08FBD1B6D1CDEE7D6
:105800004A4600DA694206A800F002FC06AB93E8BB
:10581000070003AB83E8070050460A9900F00AFD31
:105820008DE80700A0F500501F3800900398002D68
:105830000ADD42F21F014A460844002303A90390EF
:10584000684600F073FF09E0A0F500504A461F3893
:10585000002303A90390684600F07DFF8DE8070050
:105860000004000C03D04FF0FF30410800E0104668
:10587000B8F1000F03D00022009215461EE0751EFD
:1058800005D400F0D9FA303262556D1EF9D5B34611
:105890000122084302D000227F1C04E02078302837
:1058A00001D100227F1E002A099784D01DE0112D0E
:1058B00007DA00F0C1FA303262556D1C50EA01027D
:1058C000F5D1084302D00098C8B10EE00021681E4F
:1058D00005E0235C625C63542254401E491C8142F3
:1058E000F7DBAB46A81B401E0990002004F80B0014
:1058F0000B98099AC0F80880C0E9002B7AE71126B6
:105900004FF0000857E72DE9F04F88460446D21DB6
:1059100022F0070191B0D1E90001CDE90A0101F0BF
:1059200051F802460B98C00F01D02D2007E02068E7
:10593000810701D52B2002E0202101EAC000032AC3
:10594000099001D0072A05DB03464146204600F0B6
:10595000B9FA0BE12078800601D5E06900E0062065
:10596000B8F1650F814606D0B8F1660F18D0B8F1CE
:10597000670F70D131E00020B9F1110F009001DB09
:10598000112301E009F101030AAA01A90CA8FFF7FC
:10599000E2FEDDE90C70002609F10105834647E0CF
:1059A00001204B4600904FF000470AAA01A90CA81D
:1059B000FFF7D1FEDDE90DB00C995D46002610B968
:1059C00009F101000D18B9EB050003D4C0F1FF3651
:1059D00009F10105A5EB09002BE0B9F1010F01DA8E
:1059E0004FF001090020B9F1110F0090484601DD88
:1059F000112300E003460AAA01A90CA8FFF7ABFE99
:105A0000DDE90C704D4600268346207800070AD455
:105A1000AB4500DA5D4601A8012D04DD411911F8FE
:105A2000011C302907D04F4502DA17F1040F04DAC0
:105A3000012082460FE06D1EEEE7002F02DCED1B19
:105A40003E4403E0781CA84200DD7D1CB81B00F139
:105A5000010A4FF000472078000703D4AA4501DB74
:105A60004FF0FF3A0021B7F1004F0DF143088DF8D8
:105A7000431024D002202B23002F01DA7F422D2354
:105A80000A21021EA0F1010000DC5FB197FBF1FCCE
:105A900097FBF1F201FB1C7C17460CF1300C08F867
:105AA00001CDEEE7A8F1010003702188090501D5B9
:105AB000452100E06521A0F1010800F8011C0998CA
:105AC0000FA9A1EB0807FF1D00B10120411901EB4F
:105AD000EA70A1693844081A401EA0612078C00607
